:03000000020003F8
:0C000300787FE4F6D8FD75812002031B15
:0300230002000FC9
:03000F00C2993261
:1002BB008F138E128D118C10E4FFFEFDFCAB13AA75
:1002CB0012A911A810D31201F9401AE51324FFF556
:1002DB0013E51234FFF512E51134FFF511E5103477
:0602EB00FFF51080D32294
:10020A00AD07ED545525E0FBE433FAED54AAFFE4BB
:10021A00C313FEEF13FFEE4AFCEF4BFD7E0054338F
:10022A007802C333CE33CED8F9FBAA067E00ED544A
:10023A00CC7802CEC313CE13D8F9FFEF4BFD540F7F
:10024A00C4F8540FC868FBE4C454F048FAED54F0FB
:10025A00FFE4C4F854F0C868FEEFC4540F48FFEE38
:08026A004AFCEF4BAE04FF2239
:1002F1008E0E8F0FC2B2E50EFF7E0012020A8F9999
:100301002099FDAF0FAE0E12020A8F997F057E0074
:0A0311007D007C001202BBD2B22274
:10027200E412012C7B777ACC792B7841120026127A
:10028200016AAC06EC543F4440AB07FAECC41313CA
:100292005403FF7440F50C8F0DAF03AE021202F14E
:1002A200AF0DAE0C1202F17F007E201202F17FE848
:0902B2007E037D007C000202BB0A
:10031B00E4750B64F50AF509F508C200758E1075C6
:10032B00A890FF7E211202F17F007EC01202F17FA6
:0A033B00107E277D007C0002027294
:10002600EC4D6011E8497017ED33EC3304600DE4D4
:10003600FCFFFEFD22E933E8330470F80201D61214
:1000460001A158046009E4CC248150062850090215
:1000560001E02840030201DDC0E0EB4A7044B980AC
:1000660006D0E0FB0201CCEF4E701CBD8008EBFF12
:10007600EAFEE9FD80EBE98DF0A4FEE5F002010F52
:10008600E9CDF9EAFEEBFFEF89F0A4FCE5F0CE89B5
:10009600F0A42EFFE435F0CD89F0A42DFEE435F072
:1000A6008067EF4E7005BD80D780C3EF8BF0A4ACA0
:1000B600F0EE8BF0A42CFCE435F0F8EF8AF0A42CDB
:1000C600E5F038FCE433CB8DF0A42CFCE5F03BF8EE
:1000D600EE8AF0A42CFCE5F038F8E433CF89F0A4DE
:1000E6002CFCE5F038CF3400CE89F0A42FFFE5F0E4
:1000F6003EFEE433C98DF0A42EFEE5F039CD8AF03C
:10010600A42FFFE5F03EFEE43DFD33D0E0FB5007B3
:100116000BBB000F0201E0EC2CFCEF33FFEE33FECD
:06012600ED33FD0201B8FB
:10012C0075F020800E75F010800575F0087D007E4E
:10013C00007F003392D530D5031201EBEC33401025
:10014C00EF33FFEE33FEED33FDEC33FCD5F0ED2257
:0E015C00E5F0247EA2D513CC92E7CDCEFF2293
:10016A00EDD2E7CD33EC3392D524814006E4FFFE8D
:10017A00FDFC22FCE4CFCECDCC24E0501174FF80EC
:10018A00EDC3CC13CCCD13CDCE13CECF13CF047089
:07019A00F030D5DE0201EB9D
:1001A100E9D2E7C933E833F892D5EDD2E7CD33ECA4
:0701B10033FC5002B2D5221D
:1001B800EC30E7100FBF000C0EBE00080DBD0004A8
:1001C8000BEB6014A2D5EB13FCED92E7FD2274FF54
:1001D800FCFDFEFF22E480F8A2D574FF13FC7D80AD
:0301E800E480EFC1
:0E01EB00C3E49FFFE49EFEE49DFDE49CFC2225
:1001F900EB9FF5F0EA9E42F0E99D42F0E89C45F05C
:0102090022D2
:00000001FF
